{
  "contractName": "Greenbox",
  "abi": [
    {
      "inputs": [],
      "stateMutability": "nonpayable",
      "type": "constructor"
    },
    {
      "anonymous": false,
      "inputs": [
        {
          "indexed": true,
          "internalType": "address",
          "name": "from",
          "type": "address"
        },
        {
          "indexed": true,
          "internalType": "address",
          "name": "to",
          "type": "address"
        },
        {
          "indexed": true,
          "internalType": "uint256",
          "name": "tokenId",
          "type": "uint256"
        }
      ],
      "name": "Transfer",
      "type": "event"
    },
    {
      "inputs": [
        {
          "internalType": "address",
          "name": "_owner",
          "type": "address"
        }
      ],
      "name": "balanceOf",
      "outputs": [
        {
          "internalType": "uint256",
          "name": "",
          "type": "uint256"
        }
      ],
      "stateMutability": "view",
      "type": "function",
      "constant": true
    },
    {
      "inputs": [
        {
          "internalType": "uint256",
          "name": "",
          "type": "uint256"
        }
      ],
      "name": "greenBox",
      "outputs": [
        {
          "internalType": "string",
          "name": "",
          "type": "string"
        }
      ],
      "stateMutability": "view",
      "type": "function",
      "constant": true
    },
    {
      "inputs": [],
      "name": "name",
      "outputs": [
        {
          "internalType": "string",
          "name": "",
          "type": "string"
        }
      ],
      "stateMutability": "view",
      "type": "function",
      "constant": true
    },
    {
      "inputs": [
        {
          "internalType": "uint256",
          "name": "_tokenId",
          "type": "uint256"
        }
      ],
      "name": "ownerOf",
      "outputs": [
        {
          "internalType": "address",
          "name": "",
          "type": "address"
        }
      ],
      "stateMutability": "view",
      "type": "function",
      "constant": true
    },
    {
      "inputs": [],
      "name": "symbol",
      "outputs": [
        {
          "internalType": "string",
          "name": "",
          "type": "string"
        }
      ],
      "stateMutability": "view",
      "type": "function",
      "constant": true
    },
    {
      "inputs": [
        {
          "internalType": "string",
          "name": "_greenBox",
          "type": "string"
        }
      ],
      "name": "mint",
      "outputs": [],
      "stateMutability": "nonpayable",
      "type": "function"
    }
  ],
  "bytecode": "0x60806040523480156200001157600080fd5b506040518060400160405280600881526020017f477265656e626f780000000000000000000000000000000000000000000000008152506040518060400160405280600481526020017f47626f78000000000000000000000000000000000000000000000000000000008152508181816000908051906020019062000098929190620000bc565b508060019080519060200190620000b1929190620000bc565b5050505050620001d0565b828054620000ca906200019b565b90600052602060002090601f016020900481019282620000ee57600085556200013a565b82601f106200010957805160ff19168380011785556200013a565b828001600101855582156200013a579182015b82811115620001395782518255916020019190600101906200011c565b5b5090506200014991906200014d565b5090565b5b80821115620001685760008160009055506001016200014e565b5090565b7f4e487b7100000000000000000000000000000000000000000000000000000000600052602260045260246000fd5b60006002820490506001821680620001b457607f821691505b602082108103620001ca57620001c96200016c565b5b50919050565b610f6780620001e06000396000f3fe608060405234801561001057600080fd5b50600436106100625760003560e01c806306fdde03146100675780636352211e1461008557806370a08231146100b557806395ad1563146100e557806395d89b4114610115578063d85d3d2714610133575b600080fd5b61006f61014f565b60405161007c91906108f9565b60405180910390f35b61009f600480360381019061009a9190610965565b6101e1565b6040516100ac91906109d3565b60405180910390f35b6100cf60048036038101906100ca9190610a1a565b610292565b6040516100dc9190610a56565b60405180910390f35b6100ff60048036038101906100fa9190610965565b610349565b60405161010c91906108f9565b60405180910390f35b61011d6103f5565b60405161012a91906108f9565b60405180910390f35b61014d60048036038101906101489190610ba6565b610487565b005b60606000805461015e90610c1e565b80601f016020809104026020016040519081016040528092919081815260200182805461018a90610c1e565b80156101d75780601f106101ac576101008083540402835291602001916101d7565b820191906000526020600020905b8154815290600101906020018083116101ba57829003601f168201915b5050505050905090565b6000806002600084815260200190815260200160002060009054906101000a900473ffffffffffffffffffffffffffffffffffffffff169050600073ffffffffffffffffffffffffffffffffffffffff168173ffffffffffffffffffffffffffffffffffffffff1603610289576040517f08c379a000000000000000000000000000000000000000000000000000000000815260040161028090610cc1565b60405180910390fd5b80915050919050565b60008073ffffffffffffffffffffffffffffffffffffffff168273ffffffffffffffffffffffffffffffffffffffff1603610302576040517f08c379a00000000000000000000000000000000000000000000000000000000081526004016102f990610cc1565b60405180910390fd5b600360008373ffffffffffffffffffffffffffffffffffffffff1673ffffffffffffffffffffffffffffffffffffffff168152602001908152602001600020549050919050565b6005818154811061035957600080fd5b90600052602060002001600091509050805461037490610c1e565b80601f01602080910402602001604051908101604052809291908181526020018280546103a090610c1e565b80156103ed5780601f106103c2576101008083540402835291602001916103ed565b820191906000526020600020905b8154815290600101906020018083116103d057829003601f168201915b505050505081565b60606001805461040490610c1e565b80601f016020809104026020016040519081016040528092919081815260200182805461043090610c1e565b801561047d5780601f106104525761010080835404028352916020019161047d565b820191906000526020600020905b81548152906001019060200180831161046057829003601f168201915b5050505050905090565b6004816040516104979190610d1d565b908152602001604051809103902060009054906101000a900460ff16156104f3576040517f08c379a00000000000000000000000000000000000000000000000000000000081526004016104ea90610d80565b60405180910390fd5b60058190806001815401808255809150506001900390600052602060002001600090919091909150908051906020019061052e9291906107bd565b50600060016005805490506105439190610dcf565b905061054f338261058a565b60016004836040516105619190610d1d565b908152602001604051809103902060006101000a81548160ff0219169083151502179055505050565b600073ffffffffffffffffffffffffffffffffffffffff168273ffffffffffffffffffffffffffffffffffffffff16036105f9576040517f08c379a00000000000000000000000000000000000000000000000000000000081526004016105f090610e4f565b60405180910390fd5b6106028161074b565b15610642576040517f08c379a000000000000000000000000000000000000000000000000000000000815260040161063990610ebb565b60405180910390fd5b816002600083815260200190815260200160002060006101000a81548173ffffffffffffffffffffffffffffffffffffffff021916908373ffffffffffffffffffffffffffffffffffffffff1602179055506001600360008473ffffffffffffffffffffffffffffffffffffffff1673ffffffffffffffffffffffffffffffffffffffff16815260200190815260200160002060008282546106e49190610edb565b92505081905550808273ffffffffffffffffffffffffffffffffffffffff16600073ffffffffffffffffffffffffffffffffffffffff167fddf252ad1be2c89b69c2b068fc378daa952ba7f163c4a11628f55a4df523b3ef60405160405180910390a45050565b6000806002600084815260200190815260200160002060009054906101000a900473ffffffffffffffffffffffffffffffffffffffff169050600073ffffffffffffffffffffffffffffffffffffffff168173ffffffffffffffffffffffffffffffffffffffff161415915050919050565b8280546107c990610c1e565b90600052602060002090601f0160209004810192826107eb5760008555610832565b82601f1061080457805160ff1916838001178555610832565b82800160010185558215610832579182015b82811115610831578251825591602001919060010190610816565b5b50905061083f9190610843565b5090565b5b8082111561085c576000816000905550600101610844565b5090565b600081519050919050565b600082825260208201905092915050565b60005b8381101561089a57808201518184015260208101905061087f565b838111156108a9576000848401525b50505050565b6000601f19601f8301169050919050565b60006108cb82610860565b6108d5818561086b565b93506108e581856020860161087c565b6108ee816108af565b840191505092915050565b6000602082019050818103600083015261091381846108c0565b905092915050565b6000604051905090565b600080fd5b600080fd5b6000819050919050565b6109428161092f565b811461094d57600080fd5b50565b60008135905061095f81610939565b92915050565b60006020828403121561097b5761097a610925565b5b600061098984828501610950565b91505092915050565b600073ffffffffffffffffffffffffffffffffffffffff82169050919050565b60006109bd82610992565b9050919050565b6109cd816109b2565b82525050565b60006020820190506109e860008301846109c4565b92915050565b6109f7816109b2565b8114610a0257600080fd5b50565b600081359050610a14816109ee565b92915050565b600060208284031215610a3057610a2f610925565b5b6000610a3e84828501610a05565b91505092915050565b610a508161092f565b82525050565b6000602082019050610a6b6000830184610a47565b92915050565b600080fd5b600080fd5b7f4e487b7100000000000000000000000000000000000000000000000000000000600052604160045260246000fd5b610ab3826108af565b810181811067ffffffffffffffff82111715610ad257610ad1610a7b565b5b80604052505050565b6000610ae561091b565b9050610af18282610aaa565b919050565b600067ffffffffffffffff821115610b1157610b10610a7b565b5b610b1a826108af565b9050602081019050919050565b82818337600083830152505050565b6000610b49610b4484610af6565b610adb565b905082815260208101848484011115610b6557610b64610a76565b5b610b70848285610b27565b509392505050565b600082601f830112610b8d57610b8c610a71565b5b8135610b9d848260208601610b36565b91505092915050565b600060208284031215610bbc57610bbb610925565b5b600082013567ffffffffffffffff811115610bda57610bd961092a565b5b610be684828501610b78565b91505092915050565b7f4e487b7100000000000000000000000000000000000000000000000000000000600052602260045260246000fd5b60006002820490506001821680610c3657607f821691505b602082108103610c4957610c48610bef565b5b50919050565b7f4f776e657220717565727920666f72206e6f6e2d6578697374696e6720746f6b60008201527f656e000000000000000000000000000000000000000000000000000000000000602082015250565b6000610cab60228361086b565b9150610cb682610c4f565b604082019050919050565b60006020820190508181036000830152610cda81610c9e565b9050919050565b600081905092915050565b6000610cf782610860565b610d018185610ce1565b9350610d1181856020860161087c565b80840191505092915050565b6000610d298284610cec565b915081905092915050565b7f4572726f72202d206e667420616c726561647920657869737473000000000000600082015250565b6000610d6a601a8361086b565b9150610d7582610d34565b602082019050919050565b60006020820190508181036000830152610d9981610d5d565b9050919050565b7f4e487b7100000000000000000000000000000000000000000000000000000000600052601160045260246000fd5b6000610dda8261092f565b9150610de58361092f565b925082821015610df857610df7610da0565b5b828203905092915050565b7f54686973206164647265737320697320696e76616c6964000000000000000000600082015250565b6000610e3960178361086b565b9150610e4482610e03565b602082019050919050565b60006020820190508181036000830152610e6881610e2c565b9050919050565b7f5468697320746f6b656e20616c7265616479206d696e74656400000000000000600082015250565b6000610ea560198361086b565b9150610eb082610e6f565b602082019050919050565b60006020820190508181036000830152610ed481610e98565b9050919050565b6000610ee68261092f565b9150610ef18361092f565b9250827fffffffffffffffffffffffffffffffffffffffffffffffffffffffffffffffff03821115610f2657610f25610da0565b5b82820190509291505056fea2646970667358221220d51efb90aaa5d4900a5e6389e69d77f649deac228641b5c9db79c220e1d350c464736f6c634300080e0033",
  "immutableReferences": {},
  "source": "// SPDX-License-Identifier: GPL-3.\n\npragma solidity ^0.8.4;\n\nimport './ERC721Connector.sol';\n\n\ncontract Greenbox is ERC721Connector {\n\n    mapping(string => bool) _greenBoxExists;\n\n    // store the NFts\n    string[] public greenBox;\n\n    function mint(string memory _greenBox) public{\n\n        require(!_greenBoxExists[_greenBox], 'Error - nft already exists');\n\n        greenBox.push(_greenBox);\n        uint _id = greenBox.length - 1;\n\n        _mint(msg.sender, _id);\n\n        _greenBoxExists[_greenBox] = true;\n\n    }\n    \n    constructor() ERC721Connector('Greenbox', 'Gbox'){\n        \n    }\n\n    \n}\n\n",
  "sourcePath": "/home/maryam/Course/NFT/nft-marketplace-starter-kit/src/contracts/Greenbox.sol",
  "compiler": {
    "name": "solc",
    "version": "0.8.14+commit.80d49f37.Emscripten.clang"
  },
  "schemaVersion": "3.4.7",
  "updatedAt": "2022-06-02T09:24:44.944Z",
  "networkType": "ethereum",
  "devdoc": {
    "kind": "dev",
    "methods": {},
    "version": 1
  },
  "userdoc": {
    "kind": "user",
    "methods": {},
    "version": 1
  }
}