{
    "contractName": "ERC721Connector",
    "abi": [
        {
            "inputs": [
                {
                    "internalType": "string",
                    "name": "name",
                    "type": "string"
                },
                {
                    "internalType": "string",
                    "name": "symbol",
                    "type": "string"
                }
            ],
            "stateMutability": "nonpayable",
            "type": "constructor"
        },
        {
            "anonymous": false,
            "inputs": [
                {
                    "indexed": true,
                    "internalType": "address",
                    "name": "from",
                    "type": "address"
                },
                {
                    "indexed": true,
                    "internalType": "address",
                    "name": "to",
                    "type": "address"
                },
                {
                    "indexed": true,
                    "internalType": "uint256",
                    "name": "tokenId",
                    "type": "uint256"
                }
            ],
            "name": "Transfer",
            "type": "event"
        },
        {
            "inputs": [
                {
                    "internalType": "address",
                    "name": "_owner",
                    "type": "address"
                }
            ],
            "name": "balanceOf",
            "outputs": [
                {
                    "internalType": "uint256",
                    "name": "",
                    "type": "uint256"
                }
            ],
            "stateMutability": "view",
            "type": "function"
        },
        {
            "inputs": [],
            "name": "name",
            "outputs": [
                {
                    "internalType": "string",
                    "name": "",
                    "type": "string"
                }
            ],
            "stateMutability": "view",
            "type": "function"
        },
        {
            "inputs": [
                {
                    "internalType": "uint256",
                    "name": "_tokenId",
                    "type": "uint256"
                }
            ],
            "name": "ownerOf",
            "outputs": [
                {
                    "internalType": "address",
                    "name": "",
                    "type": "address"
                }
            ],
            "stateMutability": "view",
            "type": "function"
        },
        {
            "inputs": [],
            "name": "symbol",
            "outputs": [
                {
                    "internalType": "string",
                    "name": "",
                    "type": "string"
                }
            ],
            "stateMutability": "view",
            "type": "function"
        }
    ],
    "bytecode": "608060405234801561001057600080fd5b506040516105a73803806105a783398101604081905261002f916101bf565b815182908290610046906000906020850190610064565b50805161005a906001906020840190610064565b505050505061025c565b82805461007090610222565b90600052602060002090601f01602090048101928261009257600085556100d8565b82601f106100ab57805160ff19168380011785556100d8565b828001600101855582156100d8579182015b828111156100d85782518255916020019190600101906100bd565b506100e49291506100e8565b5090565b5b808211156100e457600081556001016100e9565b634e487b7160e01b600052604160045260246000fd5b600082601f83011261012457600080fd5b81516001600160401b038082111561013e5761013e6100fd565b604051601f8301601f19908116603f01168101908282118183101715610166576101666100fd565b8160405283815260209250868385880101111561018257600080fd5b600091505b838210156101a45785820183015181830184015290820190610187565b838211156101b55760008385830101525b9695505050505050565b600080604083850312156101d257600080fd5b82516001600160401b03808211156101e957600080fd5b6101f586838701610113565b9350602085015191508082111561020b57600080fd5b5061021885828601610113565b9150509250929050565b600181811c9082168061023657607f821691505b60208210810361025657634e487b7160e01b600052602260045260246000fd5b50919050565b61033c8061026b6000396000f3fe608060405234801561001057600080fd5b506004361061004c5760003560e01c806306fdde03146100515780636352211e1461006f57806370a082311461009a57806395d89b41146100bb575b600080fd5b6100596100c3565b60405161006691906101ec565b60405180910390f35b61008261007d366004610241565b610155565b6040516001600160a01b039091168152602001610066565b6100ad6100a836600461025a565b610199565b604051908152602001610066565b6100596101dd565b6060600080546100d29061028a565b80601f01602080910402602001604051908101604052809291908181526020018280546100fe9061028a565b801561014b5780601f106101205761010080835404028352916020019161014b565b820191906000526020600020905b81548152906001019060200180831161012e57829003601f168201915b5050505050905090565b6000818152600260205260408120546001600160a01b0316806101935760405162461bcd60e51b815260040161018a906102c4565b60405180910390fd5b92915050565b60006001600160a01b0382166101c15760405162461bcd60e51b815260040161018a906102c4565b506001600160a01b031660009081526003602052604090205490565b6060600180546100d29061028a565b600060208083528351808285015260005b81811015610219578581018301518582016040015282016101fd565b8181111561022b576000604083870101525b50601f01601f1916929092016040019392505050565b60006020828403121561025357600080fd5b5035919050565b60006020828403121561026c57600080fd5b81356001600160a01b038116811461028357600080fd5b9392505050565b600181811c9082168061029e57607f821691505b6020821081036102be57634e487b7160e01b600052602260045260246000fd5b50919050565b60208082526022908201527f4f776e657220717565727920666f72206e6f6e2d6578697374696e6720746f6b60408201526132b760f11b60608201526080019056fea2646970667358221220528ea3d13386980d18649213c3fe08a45020bef9b24abcaa05e680f7c76ede8f64736f6c634300080e0033",
    "sourcePath": "/home/maryam/Course/NFT/nft-marketplace-starter-kit/src/contracts/ERC721Connector.sol",
    "compiler": {
        "name": "solc",
        "version": "0.8.14+commit.80d49f37"
    },
    "functionHashes": {
        "balanceOf(address)": "70a08231",
        "name()": "06fdde03",
        "ownerOf(uint256)": "6352211e",
        "symbol()": "95d89b41"
    },
    "gasEstimates": {
        "creation": {
            "codeDepositCost": "165600",
            "executionCost": "infinite",
            "totalCost": "infinite"
        },
        "external": {
            "balanceOf(address)": "2576",
            "name()": "infinite",
            "ownerOf(uint256)": "2577",
            "symbol()": "infinite"
        }
    }
}